:100000000C9446000C9465000C949E000C946500C2
:100010000C9465000C9465000C94E2000C9465004F
:100020000C9465000C9465000C9465000C946500BC
:100030000C9465000C9465000C9465000C946500AC
:100040000C9471020C9465000C9465000C9465008E
:100050000C9465000C9465000C9465000C9465008C
:100060000C9465000C9465000C9465000C9465007C
:100070000C9465000C9465000C9467000C9465006A
:100080000C9465000C9465000C94650011241FBE4F
:10009000CFEFD0E1DEBFCDBF11E0A0E0B1E0E2E103
:1000A000FBE000E00BBF02C007900D92A836B1073D
:1000B000D9F711E0A8E6B1E001C01D92A939B10756
:1000C000E1F70E94C9030C9487050C9400001F926D
:1000D0000F920FB60F9211248F939F9380919C00E3
:1000E000809396019091960180919B0085FFFCCFB3
:1000F00090939C0080919B0085FFFCCF8AE08093C9
:100100009C00809197018F5F8093970181E080939D
:1001100098019F918F910F900FBE0F901F9018958F
:1001200010929B0088E180939A0086E080939D0066
:100130001092980087E68093990008951F920F927D
:100140000FB60F920BB60F9211242F933F938F93FC
:100150009F93EF93FF93789489B78D7F89BF8091A8
:100160007D018F5F80937D0180917D01833011F44B
:1001700010927D0180917D0184E190E020EA3FE0D2
:10018000F9013197F1F70197D9F7819BFECF84E10F
:1001900090E020EA3FE0F9013197F1F70197D9F7B4
:1001A00082E088BF89B7826089BFFF91EF919F91FC
:1001B0008F913F912F910F900BBE0F900FBE0F901C
:1001C0001F9018951F920F920FB60F9211242F9324
:1001D0003F935F936F937F938F939F93AF93BF935F
:1001E0008091750190917601892B79F48091880036
:1001F0009091890090937C0180937B0181E090E055
:10020000909376018093750135C08091880090911C
:10021000890090937A018093790120917B0130913C
:100220007C01821B930B909378018093770164E7A4
:1002300070E00E9473057093720160937101809168
:100240007101909172018D57914040F0809173013E
:10025000909174019093720180937101809171016A
:1002600090917201909374018093730110927601C2
:1002700010927501BF91AF919F918F917F916F9176
:100280005F913F912F910F900FBE0F901F90189587
:10029000982F80919B0085FFFCCF90939C00089540
:1002A000FC0107C080919B0085FFFCCF31969093A5
:1002B0009C0090819923B1F708950F931F93CF93DA
:1002C000DF939C018B0110926C0110926D011092D2
:1002D0006E0110926F0110927001C0E0D0E0C90170
:1002E000B8010E947305FE01E459FE4F80832196F8
:1002F000C901B8010E9473059B016115710579F769
:10030000DF91CF911F910F9108958A3010F4805D95
:100310000895895C089520EA3FE004C0F90131970F
:10032000F1F701970097D1F7089535E004C0232F26
:100330002A95F1F701970097D1F7089520916A0166
:1003400030916B012F5F3F4F30936B0120936A0117
:100350002817390710F480E0089510926B0110926D
:100360006A0181E008959C01809168019091690182
:100370008217930724F42091680130916901D8987D
:100380003BBD2ABD08959C0180916801909169014F
:100390008217930724F42091680130916901D89A5B
:1003A0008091680190916901821B930B9BBD8ABD6E
:1003B0000895D8981BBC1ABC08959C0180916801CF
:1003C00090916901821793072CF420916801309174
:1003D000690112C0809168019091690190958195A1
:1003E0009F4F2817390744F4809168019091690163
:1003F00022273327281B390B121613067CF4809111
:100400006801909169018217930724F42091680193
:1004100030916901D8983BBD2ABD08952115310559
:1004200021F4D8981BBC1ABC089544275527421BB9
:10043000530B80916801909169018417950724F40A
:100440004091680150916901D89A8091680190911A
:100450006901841B950B9BBD8ABD08951F93162FC0
:100460006AE070E00E945D01112381F1163010F006
:1004700015E002C0153049F4809170018A3010F403
:10048000805D01C0895C0E942405143048F0809191
:100490006F018A3010F4805D01C0895C0E942405E0
:1004A000133048F080916E018A3010F4805D01C0F5
:1004B000895C0E942405113049F080916D018A30D9
:1004C00010F4805D01C0895C0E94240580916C015C
:1004D0008A3010F4805D01C0895C0E9424051F9160
:1004E00008951F920F920FB60F920BB60F92112420
:1004F0002F933F934F935F936F937F938F939F932C
:10050000AF93BF93EF93FF9384E682BF2091940152
:10051000309195012F5F3F4F3093950120939401C7
:100520008091920190919301019690939301809311
:1005300092012931310509F0A6C01092950110925F
:10054000940187B1807E87B9369A349BFECF84B1FF
:1005500095B190937F0180937E012091900130911D
:10056000910140918E0150918F0124303105C0F4EA
:1005700080917E0190917F01F901EE0FFF1FEA57F4
:10058000FE4F91838083480F591F50938F014093F2
:100590008E012F5F3F4F309391012093900173C0E4
:1005A00080917E0190917F01840F951F209186019B
:1005B00030918701821B930B90938F0180938E0162
:1005C0009695879596958795909381018093800164
:1005D0008091880190918901909387018093860191
:1005E00080918A0190918B01909389018093880179
:1005F00080918C0190918D0190938B0180938A0161
:1006000080917E0190917F0190938D0180938C0168
:100610008091800190918101855F914018F4109242
:10062000820131C08091800190918101855F91406C
:1006300050F180917D01882369F481E00E94C50416
:1006400060E080E00E944D0580E091E00E9440055E
:1006500081E00FC080917D01813071F40E94C5045A
:1006600060E081E00E944D058CE091E00E94400531
:1006700082E08093820107C080917D01823019F46D
:1006800081E00E94C5048091920190919301C297EC
:1006900071F41092930110929201C19A84E190E05A
:1006A00035E0232F2A95F1F70197D9F7C1982091CA
:1006B0008201213009F059C080917101909172013D
:1006C0000B9718F42093830102C01092830180914C
:1006D0007101909172016AE070E00E9473056F5F92
:1006E0007F4F709385016093840180918401909184
:1006F0008501029730F481E090E09093850180932A
:1007000084018091840190918501049730F084E008
:1007100090E09093850180938401809183018130E2
:10072000E9F4209184013091850180916A019091D2
:100730006B01019690936B0180936A018217930776
:10074000A8F010926B0110926A0188B398E0892793
:1007500088BB88B390E1892788BB08C0809183015A
:10076000882321F4C398C49A01C0C398FF91EF91E4
:10077000BF91AF919F918F917F916F915F914F91B9
:100780003F912F910F900BBE0F900FBE0F901F90B7
:1007900018958998919ABC9AC49AB99AC198BB9AAB
:1007A000C398BC9AC49ABD9AD09A10929B0088E1D3
:1007B00080939A0086E080939D001092980087E6CF
:1007C000809399000E94EC0480919A008068809345
:1007D0009A00789480916A008B7F80936A00809160
:1007E0006A00886080936A0089B7826089BF81E06F
:1007F0000E94C50460E080E00E944D0587E191E021
:100800000E94400587B18F7187B986B1876886B924
:1008100060E081E00E944D0587E291E00E94400582
:1008200013BE84E682BF81E087BF10928B0082E016
:1008300080938A0084E08ABF89B7806289BFC19AA9
:1008400084E190E035E0232F2A95F1F70197D9F75D
:10085000C19882E88FBD8BE18EBD82E390E097BDA9
:1008600086BD86B597B590936901809368011BBCDE
:100870001ABC83B7876083BF40E050E0AFEF60EA07
:100880007FE0809198018130E1F78091960180337B
:10089000D9F4445D5E4F80916801909169014817D9
:1008A000590724F04091680150916901E7E3F1E0B4
:1008B00007C080919B0085FFFCCF319690939C00F0
:1008C00090819923B1F75CC0809196018133E9F45E
:1008D0008091680190916901C2971CF082E390E0D9
:1008E00004C08091680190916901D8989BBD8ABD30
:1008F0008BE490E0FB013197F1F70197D9F7D89895
:100900001BBC1ABC42E350E03BC08091960182338D
:10091000F1F480916801909169018417950714F0B2
:100920009A0104C02091680130916901D89A8091A0
:10093000680190916901821B930B9BBD8ABD80E584
:1009400090E0FB013197F1F70197D9F704C080914E
:100950009601833321F4D8981BBC1ABC11C0809136
:1009600096018F3F69F0EAE4F1E007C080919B00B7
:1009700085FFFCCF319690939C0090819923B1F72D
:10098000A0939601109298017CCF95E3292F2A9588
:10099000F1F7292F2A95F1F7292F2A95F1F7292F19
:1009A0002A95F1F79A95F1F7982F907F946095BB6F
:1009B0009B7F95BB982F9295907F946095BB9B7F72
:1009C00095BB95E09A95F1F78150823020F480E450
:1009D0009FE10197F1F708958FEF84BB80E69AEECF
:1009E0000197F1F724E325BB80E385BB34E035BBF9
:1009F00015BA95E0492F4A95F1F7E0E2FEE4319708
:100A0000F1F725BB85BB35BB15BA392F3A95F1F700
:100A1000E0EAFFE03197F1F725BB85BB84E285BBB7
:100A200080E285BB9A95F1F788E20E94C50488E0D0
:100A30000E94C50481E00E94C50486E00E94C504AE
:100A40008CE00E94C504089595E3292F2A95F1F7BB
:100A5000292F2A95F1F7292F2A95F1F7292F2A9581
:100A6000F1F79A95F1F7982F907F956095BB9B7F52
:100A700095BB8295807F856085BB8B7F85BB089504
:100A8000CF93DF93EC0103C00E9424052196888157
:100A90008823D1F7DF91CF9108958295880F880F31
:100AA000807C680F862F80680E94C50408950F938C
:100AB0001F93CF93DF938B01880F880F880F80647B
:100AC0000E94C504C0E0D0E0F801EC0FFD1F80815A
:100AD0000E9424052196C830D105B1F7DF91CF914E
:100AE0001F910F910895AA1BBB1B51E107C0AA1FBC
:100AF000BB1FA617B70710F0A61BB70B881F991FBF
:100B00005A95A9F780959095BC01CD010895F89468
:020B1000FFCF15
:100B1200476F6F64204D6F72696E6700436F6D702F
:100B22006C6574696F6E00426C75746F6F746820C7
:100B32004D6F64756C650048432D303620546573E3
:100B4200742050726F6700313A4F4E20323A52454C
:100B520020333A53544F502E0A00436F6D6D616E2D
:100B620064204572726F72212120205472792061B3
:080B72006761696E2E0A0000A4
:00000001FF
